:1000000033C000004DC000004BC0000049C00000DC
:1000100047C0000045C0000043C0000065C00000AC
:100020003FC000003DC000003BC0000039C00000E0
:1000300037C0000035C0000033C0000031C00000F0
:100040002FC000002DC000002BC0000029C0000000
:1000500027C0000026C0000023C0000021C000000F
:100060000C94650F1DC0000011241FBECFEFD8E017
:10007000DEBFCDBF11E0A0E0B1E0E8E0FEE202C0EB
:1000800005900D92AA37B107D9F722E0AAE7B1E0AF
:1000900001C01D92AF33B207E1F74BD00C94EA16C2
:1000A000AFCF1F920F920FB60F9211242F933F9351
:1000B0004F935F936F937F938F939F93AF93BF9370
:1000C000EF93FF93D4D3FF91EF91BF91AF919F91A5
:1000D0008F917F916F915F914F913F912F910F90F1
:1000E0000FBE0F901F9018951F920F920FB60F9290
:1000F00011242F933F934F935F936F937F938F932D
:100100009F93AF93BF93EF93FF9380E00E945511AD
:10011000FF91EF91BF91AF919F918F917F916F91DF
:100120005F914F913F912F910F900FBE0F901F90B5
:100130001895CDB7DEB72A970FB6F894DEBF0FBE7D
:10014000CDBFEED08111FFCF38D18111FFCFA0D12B
:100150008111FFCF69D28111FFCFBAD08111FFCFBA
:10016000E8D18111FFCF34D28111FFCF0BE411E030
:1001700020E5E22E21E0F22EF80181918F0146D395
:1001800081110AC0E016F106B9F731D3789480E006
:10019000ADD5882311F0FFCFFFCF80E00E94E80AA1
:1001A0008111FFCF80E0AED715E001E08823A1F0F8
:1001B000FFCFE0918101E83040F4F0E0E451F94EE6
:1001C0000C949F1681E00E94A512809181018730D6
:1001D00018F48F5F8093810180E00E94F10E80917E
:1001E0008201282F30E0220F331F41E050E04C0FF6
:1001F0005D1F240F351F612F0E947116E92FF0E05B
:10020000E55BFE4FB90180810BD3809182018F5F46
:10021000612F0E947116909382010E940E1283300A
:1002200041F20E946A12D8CF60E080E00E94F3128F
:10023000CCCF6EE170E08EE191E00E94AC166EE1F1
:1002400071E00E942013C1CF60E081E0EFCF6EE14A
:1002500070E080E091E00E94AC1660E071E0F1CFC8
:1002600080E00E94D912B1CF80E00E94BF12ADCFD2
:1002700080918001882339F064E081E00E94F312CC
:1002800010928001A2CF80917F014AE06AE771E07D
:1002900090E00E94B71665E070E08AE791E00E9466
:1002A000AC1645E050E0481B590B60E270E0865800
:1002B0009E4F0E94A5166AE771E083E00E9420131A
:1002C00080917F018F5F80937F01009380017DCFBC
:1002D000CF93DF93CDB7DEB762970FB6F894DEBF4A
:1002E0000FBECDBFCE0101961BD286E08B8381E08D
:1002F0008C831E8228E833E13A8329838A8BCE01DE
:1003000001961DD2982F81E0911101C080E0629684
:100310000FB6F894DEBF0FBECDBFDF91CF91089529
:10032000CF93DF93CDB7DEB76A970FB6F894DEBFF1
:100330000FBECDBFCE010196B8D481113CC087E479
:1003400090E09C8B8B8B88E490E09E8B8D8B84E47B
:1003500090E09E878D8785E490E0988B8F8786E478
:1003600090E09A8B898B85E390E09A8F898F8EE657
:1003700090E0988F8F8B569A559A5E9A5D9892E08E
:100380009F8383E08E839C838D8383E68A838B8324
:10039000BE016F5F7F4F80E002D5982F81E0911101
:1003A00001C080E06A960FB6F894DEBF0FBECDBFE5
:1003B000DF91CF91089581E0F5CFCF93DF93CDB753
:1003C000DEB7AC970FB6F894DEBF0FBECDBFCE013F
:1003D00001960E94B50A811159C089E890E09E8F6C
:1003E0008D8F88E890E098A38F8F8BE890E09AA398
:1003F00089A38AE890E09CA38BA380E890E09C8B83
:100400008B8B81E890E09E8B8D8B82E890E0988FBB
:100410008F8B85E890E09A8F898F84E890E09C8F9D
:100420008B8F86E390E09CA78BA78FE690E09AA73E
:1004300089A787E890E09EA38DA386E890E098A71F
:100440008FA3219A229A299A2A9882E08C8397E096
:100450009B83898383E08A8380E092E098878F83FF
:100460009A878987BE016F5F7F4F80E00E94410BB2
:10047000982F81E0911101C080E0AC960FB6F894FE
:10048000DEBF0FBECDBFDF91CF91089581E0F5CFE4
:10049000CF93DF93CDB7DEB76D970FB6F894DEBF7D
:1004A0000FBECDBFCE010196FBD5811140C083EBBD
:1004B00090E09D8B8C8B84EB90E09F8B8E8B80EB00
:1004C00090E09F878E8781EB90E0998B888B82EB01
:1004D00090E09B8B8A8B87E390E09B8F8A8F80E7ED
:1004E00090E0998F888F86EB90E09D8F8C8F239A78
:1004F000539A2B9A5B9892E09F8383E08E839C8330
:100500008D8383E68A838B83BE016F5F7F4F80E09C
:100510005AD6982F81E0911101C080E06D960FB6F8
:10052000F894DEBF0FBECDBFDF91CF91089581E07B
:10053000F5CF0F931F93CF93DF93CDB7DEB76397BC
:100540000FB6F894DEBF0FBECDBF8E010F5F1F4FF9
:1005500083E1F80111928A95E9F7C8010E94050C20
:10056000811134C081E189831F8281E08A8382E323
:100570008C831B828DEB90E09B8B8A8B8AEB90E0C7
:10058000998B888B88EB90E09B878A878CEB90E037
:10059000998788878BEB90E09F878E8789EB90E027
:1005A0009D878C87B80180E00E94B60E982F81E06D
:1005B000911101C080E063960FB6F894DEBF0FBEC4
:1005C000CDBFDF91CF911F910F91089581E0F3CFBF
:1005D0000F931F93CF93DF9300D000D000D0CDB7FF
:1005E000DEB78E010F5F1F4F86E0F80111928A95EA
:1005F000E9F7C8010E94FC11811114C01A82C801D8
:100600000E941112982F81E0911101C080E026967E
:100610000FB6F894DEBF0FBECDBFDF91CF911F9113
:100620000F91089581E0F3CFCF93DF93CDB7DEB77D
:100630002B970FB6F894DEBF0FBECDBFFE013296EA
:100640008AE0DF011D928A95E9F780E094E2A4EF49
:10065000B0E08B839C83AD83BE8383E0898382E09B
:100660008F83BE016F5F7F4F80E00E94880F982FBD
:1006700081E0911101C080E02B960FB6F894DEBFA7
:100680000FBECDBFDF91CF910895809183019091EE
:100690008401892B71F1E091B101F091B201808167
:1006A00086FD26C0E091B501F091B6018081E09110
:1006B000B701F091B8019081E0918301F09184013C
:1006C0009283818363E871E085E891E055D18111DF
:1006D0000FC0A0918301B0918401109749F0E0917F
:1006E000AF01F091B00180819C91807F892B808344
:1006F000089563E871E085E891E05CD1882359F2C0
:100700000895DC01FB01892B49F0309739F082E133
:1007100001900D928A95E1F780E0089583E00895B5
:10072000FC01892B51F011821082128213821482F3
:1007300016821582118A80E0089583E00895CF9390
:10074000DF93EC0183E0209709F44BC085E891E04A
:10075000A2D0BE0188EA91E0D4DFE091AF01F09130
:10076000B00180812B8190E4299F900111248F7327
:10077000822B8083E091AF01F091B00180812C81C8
:1007800090E2299F900111248F7D822B8083E0913C
:10079000B101F091B20180818C7F9A81892B808395
:1007A000E091B301F091B40180819E81892B808317
:1007B0008091B901882339F0E091B101F091B20143
:1007C000808188608083E091B101F091B2018D81D8
:1007D00081110AC080818F7D808381E08093BA017E
:1007E00080E0DF91CF91089580818062F5CF809184
:1007F000BA01882349F0E091B101F091B201808102
:10080000806C808380E0089582E00895682F85E8F9
:1008100091E05CD0982F81E0911101C080E00895B3
:100820000F931F93CF93DF9300D0CDB7DEB78B012B
:10083000672BD9F01A821982AE014F5F5F4F682F84
:1008400085E891E063D081110EC0E981FA812181B0
:100850003281F801318320830F900F90DF91CF9187
:100860001F910F91089582E0F7CF83E0F5CF0DDF60
:10087000E091B101F091B20180818064808308959C
:10088000FC01892B31F08FE080831282118280E09D
:10089000089583E008950F931F93CF93DF93EC01A6
:1008A00083E0209771F0188219828E010E5F1F4F2E
:1008B000A396C801E5DF0D5F1F4F0C171D07C9F791
:1008C00080E0DF91CF911F910F910895CF93DF9337
:1008D0000F92CDB7DEB7FC01698383E0309781F0DA
:1008E00080818B3088F480818F5F808390818981C3
:1008F00023E0929FE00DF11D11243397828380E065
:100900000F90DF91CF91089581E0FACFCF93DF93DD
:100910000F92CDB7DEB7FC01698383E0309721F1F8
:100920008081882339F180E09081891728F0FA01CD
:100930001182108284E018C0282F30E0D901AA0F5C
:10094000BB1FA20FB31FAE0FBF1F12962C91998130
:1009500029130EC093E0899FE00DF11D11243296FA
:10096000DA01ED93FC9380E00F90DF91CF91089531
:100970008F5FDACF82E0F8CFFC01DB01892BB1F089
:1009800080818823A9F081818F5F8183608181814B
:100990000E9471169183818193E0899FE00DF11D82
:1009A00011243296ED93FC9380E0089583E008953E
:1009B00082E00895FC01DB01892B71F0808188239E
:1009C00069F0818193E0899FE00DF11D1124329639
:1009D000ED93FC9380E0089583E0089582E008950C
:1009E000FC0191E026813781232B09F090E081E022
:1009F00020853185232B09F080E0982B81E0208130
:100A00003181232B09F080E0982B81E02281338112
:100A1000232B09F080E0982B81E024813581232B62
:100A200009F080E0982B81E024853585232B09F09F
:100A300080E0982B21F482859385892B11F483E043
:100A4000089580E00895FC0186818093C901A091FA
:100A5000BF01B091C00180818C93A091C701B0917A
:100A6000C8011C92A091BB01B091BC011C92A09145
:100A7000C101B091C20181818C93A091C301B09159
:100A8000C40182818C93A091BB01B091BC018C9177
:100A9000238190E4299F900111248F73822B8C93E2
:100AA000A091BB01B091BC018C91248190E1299F60
:100AB000900111248F7C822B8C93A091BB01B0916B
:100AC000BC019C91858183709C7F892B8C93A09124
:100AD000BD01B091BE019C918581880F8870977F80
:100AE000892B8C938285A091BD01B091BE01882392
:100AF00069F18C9180688C93A091BD01B091BE0189
:100B00008385882331F18C9180648C93A091C501F9
:100B1000B091C60187818823F9F08C9182608C9313
:100B2000A091C501B091C60180858823C1F08C9148
:100B300084608C93A091C501B091C6018185882302
:100B400089F08C9181608C9380E008958C918F77EF
:100B5000D2CF8C918F7BD9CF8C918D7FE0CF8C9130
:100B60008B7FE7CF8C918E7FEECFFC0180819181CE
:100B700081309105C9F088309105C9F08034910524
:100B8000C9F08115F1E09F07C1F081159440C1F4CF
:100B900084E090E0880F991FFC01EF5AFE4F80819E
:100BA000869586958695089590E080E0F3CF81E064
:100BB00090E0F0CF82E090E0EDCF83E090E0EACFEC
:100BC00080E00895CF92DF92EF92FF920F931F93F0
:100BD000CF93DF93CDB7DEB764970FB6F894DEBF3F
:100BE0000FBECDBF6A017901FE0139962CE0DF010D
:100BF0001D922A95E9F7FC0180819181A281B38140
:100C000089839A83AB83BC83FB0180819181A2811C
:100C1000B3818D839E83AF83B88780E591E09B8706
:100C20008A8785E08C87CE0101960E947E15CE01D1
:100C30000D969BDFD6018C938F85F7018083898980
:100C40009A89D8018D939C9364960FB6F894DEBF71
:100C50000FBECDBFDF91CF911F910F91FF90EF900D
:100C6000DF90CF900895FB0181110AC0309751F0B9
:100C70009EE0ABEBB1E001900D929A95E1F70895FB
:100C800084E0089582E00895DB0181110AC0109785
:100C900051F09EE0EBEBF1E001900D929A95E1F7B7
:100CA000089584E0089582E00895FC01892BE1F025
:100CB0001782108611861082118212821682158286
:100CC0001382148212861386138A128A158A148A52
:100CD0001586148617861686118A108A118E108E34
:100CE000178A168A80E0089582E00895811114C061
:100CF0008BEB91E075DE811112C09091CA019923AE
:100D000069F0E091BD01F091BE019081987F209142
:100D1000C901922B9083089584E0089585E0089599
:100D200081110CC09091CA01992351F0E091BD014D
:100D3000F091BE019081987F9083089584E008959A
:100D400085E008950F931F93CF93DF93EB018111FB
:100D500024C082E0209799F08B01045F1F4FC801E7
:100D60003FDE81110CC0B8017EDF811108C0809187
:100D7000CA01811109C0CE0166DE882351F0DF91DE
:100D8000CF911F910F91089580E0CADF882399F3D6
:100D9000F6CF91E09093CA01F2CF84E0F0CF8111B9
:100DA00001C0D0CF84E00895FB01811106C03097C7
:100DB00031F09091CA019083089584E0089582E013
:100DC0000895FC0191E026813781232B09F090E002
:100DD00081E020853185232B09F080E0982B81E08C
:100DE00020813181232B09F080E0982B81E0228142
:100DF0003381232B09F080E0982B81E02481358119
:100E0000232B09F080E0982B81E024853585232B66
:100E100009F080E0982B81E022853385232B09F0AF
:100E200080E0982B21F486859785892B11F483E047
:100E3000089580E00895E091D901F091DA01908160
:100E4000892309F086E00895CF93DF93EC018FE1C9
:100E5000F2DF811180C09E819093DB01E091D70188
:100E6000F091D8011082E091CF01F091D0019881EA
:100E70009083E091CB01F091CC011082E091D101FF
:100E8000F091D20199819083E091D301F091D40146
:100E90009A819083E091CB01F091CC0190812B81DC
:100EA00040E4249F900111249F73922B9083E09142
:100EB000CB01F091CC0190812C8140E1249F9001E5
:100EC00011249F7C922B9083E091CB01F091CC0177
:100ED00020819D8193702C7F922B9083E091CD0196
:100EE000F091CE0120819D81990F9870277F922BE0
:100EF00090839B85E091CD01F091CE01992371F112
:100F0000908190689083E091CD01F091CE019C8515
:100F1000992339F1908190649083E091D501F0910B
:100F2000D6019885992301F1908192609083E09198
:100F3000D501F091D60199859923C9F090819460EB
:100F40009083E091D501F091D6019A85992391F093
:100F5000908191609083DF91CF91089590819F77E8
:100F6000D1CF90819F7BD8CF90819D7FDFCF908123
:100F70009B7FE6CF90819E7FEDCFFC0160817181E8
:100F800090E080E09C01220F331FF901E65AFE4FEA
:100F90004081E1815E2F57706417750741F4255A2F
:100FA0003E4FF90180818695869586950895019634
:100FB0008730910539F780E00895CF92DF92EF9264
:100FC000FF920F931F93CF93DF93CDB7DEB7649754
:100FD0000FB6F894DEBF0FBECDBF6A017901FE01E6
:100FE00039962CE0DF011D922A95E9F7FC018081FA
:100FF0009181A281B38189839A83AB83BC83FB01F6
:1010000080819181A281B3818D839E83AF83B887D4
:101010008AE591E09B878A8787E08C87CE010196DD
:101020000E947E15CE010D96A8DFD6018C938F8588
:10103000F701808389899A89D8018D939C9364965E
:101040000FB6F894DEBF0FBECDBFDF91CF911F91D9
:101050000F91FF90EF90DF90CF900895FB018111E9
:101060000AC0309751F090E1ABECB1E001900D92E5
:101070009A95E1F7089584E0089582E00895DB01F0
:1010800081110AC0109751F090E1EBECF1E0019072
:101090000D929A95E1F7089584E0089582E008950D
:1010A000FC01892B01F110861186128610821182B3
:1010B0001282168215821382148281E0878313863E
:1010C0001486148A138A168A158A16861586108A3B
:1010D0001786128A118A128E118E108E178A148E1C
:1010E000138E80E0089582E00895FB01811106C00F
:1010F000309731F09091DC019083089584E0089559
:1011000082E00895811118C08BEC91E05ADE8111C4
:1011100016C08091DC01882389F081E08CDE81118A
:101120000EC0E091CD01F091CE019081987F209189
:10113000DB01922B9083089584E0089585E0089563
:10114000811110C08091DC01882371F081E073DE91
:1011500081110BC0E091CD01F091CE019081987F7B
:101160009083089584E0089585E008950F931F9378
:10117000CF93DF93EB01811124C082E0209799F097
:101180008B01035F1F4FC8011CDE81110CC0B80129
:1011900065DF811108C08091DC01811109C0CE0199
:1011A00053DE882351F0DF91CF911F910F91089565
:1011B00080E0C6DF882399F3F6CF91E09093DC01BD
:1011C000F2CF84E0F0CF811101C0D0CF84E0089548
:1011D000FC0191E020813181232B09F090E081E036
:1011E00022813381232B09F080E0982B81E0248138
:1011F0003581232B09F080E0982B81E0228533850F
:10120000232B09F080E0982B81E024853585232B62
:1012100009F080E0982B81E026853785232B09F0A3
:1012200080E0982B81E020893189232B09F080E030
:10123000982B81E026813781232B09F080E0982BC1
:1012400081E020853185232B09F080E0982B81E017
:1012500022893389232B09F080E0982B81E02489AF
:101260003589232B09F080E0982B81E02689378986
:10127000232B09F080E0982B21F4808D918D892B10
:1012800011F483E0089580E00895FC018381809348
:10129000F701A091F501B091F6011C92A091E30134
:1012A000B091E40184819581892F99278C93A09135
:1012B000E501B091E60184818C93A091DD01B091AC
:1012C000DE011C92A091E701B091E801868197812F
:1012D000892F99278C93A091E901B091EA01868129
:1012E0008C93A091EB01B091EC0180859185892FC1
:1012F00099278C93A091ED01B091EE0180858C939C
:10130000A091DD01B091DE018C91208190E4299FB4
:10131000900111248F73822B8C93A091DD01B091E9
:10132000DE018C91218190E1299F900111248F7C15
:10133000822B8C93A091DD01B091DE019C91828182
:1013400083709C7F892B8C93A091DF01B091E00189
:101350009C918281880F8871977E892B8C93A091B4
:10136000DF01B091E0018C91208990E4299F9001E8
:1013700011248F7B822B8C938189A091DF01B09106
:10138000E0018823B9F18C9180688C93A091E101F0
:10139000B091E2018685882381F18C9180688C93DD
:1013A000A091E101B091E2018785882349F18C91F8
:1013B00080648C93A091F301B091F401838588231C
:1013C00011F18C9182608C93A091F301B091F401A2
:1013D00084858823D9F08C9184608C93A091F3014B
:1013E000B091F40185858823A1F08C9181608C9364
:1013F00080E008958C918F77C8CF8C918F77CFCF75
:101400008C918F7BD6CF8C918D7FDDCF8C918B7F14
:10141000E4CF8C918E7FEBCFFC0180819181813074
:101420009105C9F088309105C9F080349105C9F063
:101430008115F1E09F07C1F081159440C1F484E06B
:1014400090E0880F991FFC01E759FE4F8081869537
:1014500086958695089590E080E0F3CF81E090E056
:10146000F0CF82E090E0EDCF83E090E0EACF80E043
:101470000895AF92BF92CF92DF92EF92FF920F93B7
:101480001F93CF93DF93CDB7DEB764970FB6F89471
:10149000DEBF0FBECDBF6A0179015E012DE0A20E55
:1014A000B11C28E0F50111922A95E9F7FC01808131
:1014B0009181A281B38189839A83AB83BC83FB0131
:1014C00080819181A281B3818D839E83AF83B88710
:1014D00081E0898788E691E09B878A8785E08C8711
:1014E000CE0101960E947E15C50196DFF60180832C
:1014F0008F859889F7019183808389899A89F8017A
:101500009183808364960FB6F894DEBF0FBECDBF83
:10151000DF91CF911F910F91FF90EF90DF90CF90CF
:10152000BF90AF900895FB0181110AC0309751F030
:101530009AE1ADEDB1E001900D929A95E1F7089531
:1015400084E0089582E00895DB0181110AC01097BC
:1015500051F09AE1EDEDF1E001900D929A95E1F7ED
:10156000089584E0089582E00895FC01892B71F1CB
:1015700013861486158612861582148217821682A7
:1015800011861086138212821082118216861786A7
:10159000108A118A158E148E178E168E11A210A223
:1015A00013A212A2138A128A158A148A178A168A1B
:1015B000118E108E138E128E15A214A217A216A2CF
:1015C00013A612A611A610A680E0089582E0089541
:1015D000811114C08DED91E0FBDD811112C090915D
:1015E000F801992369F0E091DF01F091E001908129
:1015F000987F2091F701922B9083089584E00895BD
:1016000085E0089581110CC09091F801992351F063
:10161000E091DF01F091E0019081987F908308953F
:1016200084E0089585E008950F931F93CF93DF938F
:10163000EB01811124C082E0209799F08B010E5EAE
:101640001F4FC801C5DD81110CC0B8016CDF8111CD
:1016500008C08091F801811109C0CE0116DE8823EF
:1016600051F0DF91CF911F910F91089580E0CADF73
:10167000882399F3F6CF91E09093F801F2CF84E0BC
:10168000F0CF811101C0D0CF84E00895FB0181111A
:1016900006C0309731F09091F8019083089584E06E
:1016A000089582E0089586E0089586E00895CF9336
:1016B000DF93C0910402D0910502A0910E02B09177
:1016C0000F02E0910602F091070260910A02709108
:1016D0000B02409108025091090220910C023091B6
:1016E0000D0281E0CD2B09F480E091E0AB2B09F4F1
:1016F00090E0892391E0EF2B09F490E0892391E0B9
:10170000672B09F490E0892391E0452B09F490E0E0
:10171000892391E0232B09F490E08923DF91CF9175
:101720000895CF93DF93EC01C2DF882309F463C0EF
:10173000E0910602F091070288818083E09108021F
:10174000F091090280818C7F8083E0910802F09102
:10175000090280819981892B8083E0910C02F091AC
:101760000D02808181708083E0910C02F0910D0266
:1017700090818B81880F892B8083E0910E02F091FC
:101780000F02808181708083E0910E02F0910F0240
:1017900090818C81880F892B8083E0910C02F091DD
:1017A0000D0280818E7F8083E0910C02F0910D020A
:1017B00080819D81892B8083E0910402F091050254
:1017C00080818E7F8083E0910402F0910502808108
:1017D0009E81892B8083E0910402F0910502908123
:1017E0008A818295880F880F807C892B808380E096
:1017F000DF91CF91089583E0FBCFE0910402F09157
:1018000005028081806880830895CF93DF93FC0177
:1018100082E0309779F0DF0117968CE0ED011992A4
:101820008A95E9F71082158216821182128213823C
:10183000148280E0DF91CF910895FB01811127C0D0
:10184000309739F12285338530930F0220930E02B1
:101850002085318530930D0220930C022281338143
:1018600030930702209306022081318130930502D4
:10187000209304022681378130930B0220930A02C1
:10188000248135813093090220930802089584E071
:10189000089582E008950F931F93CF93C82F8B0173
:1018A000811112C0672B91F002DF882389F0E0914B
:1018B0000802F09109028081887FF80180838C2FD3
:1018C000CF911F910F910895C4E0F9CFC2E0F7CFF7
:1018D000C3E0F5CF1F93CF93DF930F92CDB7DEB761
:1018E000BE016F5F7F4F80E0D6DF182F811145C0AA
:1018F0009981983F09F441C0983409F4BFC008F0B9
:1019000042C0903131F0903409F44CC0983009F065
:101910003FC0E0910A02F0910B028091FC018083AC
:101920008091FE01882309F4AFC09091F9018917D5
:1019300018F5109200021092FF011092010210920D
:10194000020282E08093100280931102E09104026F
:10195000F09105028081E0910402F09105028F76FA
:1019600080618083E0910402F091050280818F798B
:1019700080831092F90118E040DF812F0F90DF91F2
:10198000CF911F9108959035E1F0983509F451C039
:10199000109200021092FF011092010210920202B6
:1019A00082E03DC0E0910402F09105028081E09167
:1019B0000402F09105028F71806480831092F90116
:1019C000AFCFA0910A02B0910B028091FD01E0918E
:1019D000FF01F0910002E80FF11D9C9190838F5F51
:1019E0008093FD0190910102E0910402F0910502C3
:1019F000891318C08081E0910402F09105028F7371
:101A00008083FBDEE0910402F09105028081E09189
:101A10000402F09105028F768061808389E08093D3
:101A20001002CCCF8081E0910402F09105028F7307
:101A3000C3CF909101028091FD01981310C0E091F5
:101A40000402F09105028081E0910402F091050208
:101A50008F768061808389E08093100261CF81E07E
:101A60008093FD01E0910402F09105028081E091F4
:101A70000402F09105028F73806480838091F901E4
:101A80008F5F8093F9014CCF10E076CF1F93CF93F7
:101A9000DF9300D0CDB7DEB71A82BE016E5F7F4FF5
:101AA00080E0F9DE182F8A8181111AC082E08093CC
:101AB0001002109200021092FF0110920102109287
:101AC0000202E0910402F091050280818069808326
:101AD0001CE0812F0F900F90DF91CF911F910895FF
:101AE000E0911002E250E83008F016C1F0E0EC504E
:101AF000F94E0C949F168A81883F59F38A8180366B
:101B000040F08A81813A28F484E08093100211E049
:101B1000E0CF8A81883AE8F28A81893CD0F685E074
:101B2000F4CF80911102813031F486E0809310026D
:101B3000D1DE182FCECF82E0809311028093100265
:101B400010920202C6CFE0910402F091050280815A
:101B500087FFBFCFE0910802F09109028081887F62
:101B600089838981803209F461C0A8F5803129F028
:101B7000883109F43FC0883099F5E0910A02F0916C
:101B80000B028091FC0180831091FE01112309F169
:101B90008091FA01181708F0A1C01092000210926B
:101BA000FF01109201021092020282E08093100263
:101BB00080931102E0910402F09105028081E0918E
:101BC0000402F09105028F71806180831092FA0106
:101BD00018E013DE7ECF8832B1F1803309F46FC094
:101BE000109200021092FF01109201021092020264
:101BF00082E045C08091FD01E091FF01F09100027B
:101C0000E80FF11DA0910A02B0910B0280818C9324
:101C1000E0910402F09105028081E0910402F091CC
:101C200005028F7580831092FA01AECFE0910A020F
:101C3000F0910B028091FC0180838091FA018F5F0B
:101C40008093FA01A1CF8091FD018F5F8093FD0108
:101C5000909111029130B1F48091FB01880F816065
:101C60008093FC01E0910402F09105028081E091F3
:101C70000402F09105028F778062808388E0809370
:101C80001002D1CF90910102891769F0E091FF0114
:101C9000F0910002E80FF11DA0910A02B0910B0231
:101CA00080818C93C0CFE0910402F0910502808185
:101CB000E0910402F09105028F768061DECF809181
:101CC000FD01E091FF01F0910002E80FF11DA091EC
:101CD0000A02B0910B0280818C93AFCF10E079CFD4
:101CE000E0910402F0910502808187FFF2CE20CFBF
:101CF000E0910402F0910502808187FFEACE07CFD0
:101D0000E0910402F0910502808187FF03C082E028
:101D10008093100210E0DDCE1092020216E0D9CEC0
:101D2000E0910402F0910502808187FDAFCE089515
:101D3000CF93C82F811116C0BADC8823A9F0E09197
:101D40000402F09105028081846080838091030207
:101D5000882331F082E0809310028C2FCF91089578
:101D600081E0F9CFC4E0F9CFC3E0F7CFCF93DF93A1
:101D7000EB0193E1899FF0011124ED5FFD4F25E513
:101D80003BE0328B218B23E53BE0308B27878111B1
:101D900017C02097B9F0695F7F4F4FDD81110DC0EB
:101DA000CE01BFDC811109C0C3DF811106C092E002
:101DB0009093100291E090930302DF91CF910895E8
:101DC00084E0FBCF82E0F9CFFB01811106C03097A0
:101DD00031F0909110029083089584E0089582E09C
:101DE0000895811105C080910302882319F04ECE19
:101DF00084E0089587E00895CF92DF92FF920F93D9
:101E00001F93CF93DF930F92CDB7DEB7162F6A01E2
:101E1000F22E811150C082E0452B09F443C080911D
:101E20000302882309F449C085E067FD3BC019829D
:101E3000BE016F5F7F4F80E02EDD811133C0909136
:101E400010029230E1F59981983F49F0E091040247
:101E5000F0910502208127FD02C0911130C0FF20C2
:101E600081F19EE19F1578F1D0920002C092FF01AE
:101E700091E090930202F09201021092FD01009312
:101E8000FE011093FB01110F1093FC0197E090935A
:101E9000100210921102E0910402F091050290816B
:101EA000906290830F90DF91CF911F910F91FF90DF
:101EB000DF90CF90089584E0F5CF87E0F3CF8BE0FB
:101EC000F1CF89E0EFCF8AE0EDCF1F920F920FB6EE
:101ED0000F9211242F933F934F935F936F937F93B0
:101EE0008F939F93AF93BF93EF93FF9319DFFF916E
:101EF000EF91BF91AF919F918F917F916F915F9182
:101F00004F913F912F910F900FBE0F901F901895FA
:101F10009F92AF92BF92CF92DF92EF92FF920F9378
:101F20001F93CF93DF93CDB7DEB7CE54D1090FB651
:101F3000F894DEBF0FBECDBF082F6B0183E00330E6
:101F400008F0B6C082E06115710509F4B1C0E02E59
:101F5000F12CDB0111968C91B9E00B9FF00111245B
:101F6000EA5EFD4F8183DB019C90908216969C91E6
:101F7000933009F4B0C058F4913009F4B1C048EE80
:101F800053E060E070E0923049F085E091C0943019
:101F9000E1F7FB0147815085618572852B964CAF37
:101FA0005DAF6EAF7FAF2B97F2E09F1609F40DC1C6
:101FB00043E0941609F499C051E0951274C12F962C
:101FC0001FAE2F97BE01625B7F4F0E94D406811126
:101FD00064C02F968FAD2F97882309F462C12E9687
:101FE0001FAE2E9789E08E9D90018F9D300D11249C
:101FF000D901AA5EBD4F5D0113961C921E921297E5
:10200000089F80011124085E1D4F9E01235B3F4FF6
:10201000AE01455B5F4FBE01695B7F4FC601029613
:102020000E94E205F50181810E9490066E01FDE2A9
:10203000CF0ED11C8EE0D6011D928A95E9F7B6012C
:10204000F50181810E944406811127C08E010F5F36
:102050001F4F8AE1D8011D928A95E9F7C8010E94B5
:10206000550681111AC08EE0F601DE011D96019021
:102070000D928A95E1F782E08C831D822E968FADBA
:102080002E978A832C968FAD2C978F839886B801D4
:10209000F50181810E94A206811187E099E09E9D51
:1020A000F0019F9DF00D1124EA5EFD4F91E09087B5
:1020B000C25BDF4F0FB6F894DEBF0FBECDBFDF911E
:1020C000CF911F910F91FF90EF90DF90CF90BF9035
:1020D000AF909F90089541E050E060E070E05ECFE7
:1020E00040E452E46FE070E059CF2F961FAE2F9777
:1020F000BE01625B7F4F0E9475088111CECF2F9683
:102100008FAD2F97882309F4CCC02E961FAE2E9743
:1021100089E08E9D90018F9D300D1124A9014A5EAA
:102120005D4F5A01DA0113961C921E921297089F76
:1021300080011124085E1D4F9E01235B3F4FAE01BD
:10214000455B5F4FBE01695B7F4FC60102960E94EF
:10215000DD07F50181810E94A0086E01FDE2CF0E2E
:10216000D11C80E1D6011D928A95E9F7B601F501EF
:1021700081810E943F08811190CF8E010F5F1F4F18
:102180008DE1D8011D928A95E9F7C8010E94500897
:10219000811183CF80E1F601DE011E9601900D9240
:1021A0008A95E1F782E08C831D822E968FAD2E9763
:1021B0008A832C968FAD2C978F8381E08987B80115
:1021C000F50181810E94B60867CF2F961FAE2F9729
:1021D000BE01625B7F4F5ADA81115FCF2F968FADC0
:1021E0002F97882309F45DC02D961FAE1EAE2D9744
:1021F00089E08E9D90018F9D300D1124A9014A5ECA
:102200005D4F5A01DA0113961C921E921297089F95
:1022100080011124085E1D4F9E01255B3F4FAE01DA
:10222000435B5F4FBE01695B7F4FC601029621D9B8
:10223000F5018181E7D96E01FDE2CF0ED11C8AE163
:10224000D6011D928A95E9F7B601F50181817CD905
:10225000811123CF8E010F5F1F4F8CE2D8011D9299
:102260008A95E9F7C80181D9811117CF8AE1F60172
:10227000DE01539601900D928A95E1F799821A82B8
:102280002D968EAD9FAD2D9798878F832E968FAD0F
:102290002E978C8381E08C87B801F5018181C4D9A8
:1022A000FBCE86E0FBCE84E003CF8330D8F499E008
:1022B000899FF0011124EA5EFD4F228133812115AF
:1022C000310559F0848195818217930720F4019696
:1022D000958384830895158214828681978101965F
:1022E000978386830895DB01833088F4109789F003
:1022F00099E0899FF0011124EA5EFD4F80858823D3
:1023000051F0868197818D939C9380E0089583E0BE
:10231000089582E0089581E00895CF93DF93EC0162
:10232000DB01FA01892BA1F0109791F0309781F031
:10233000288139818D919C918217930708F4019728
:10234000821B930B9183808380E0DF91CF9108956E
:1023500082E0FBCFEF92FF920F931F93CF93DF9317
:1023600000D0CDB7DEB78B017A018330D8F4672B6C
:10237000D9F0452BC9F01A821982BE016F5F7F4FD9
:10238000B2DF811106C0A701BE016F5F7F4FC80198
:10239000C4DF0F900F90DF91CF911F910F91FF90AD
:1023A000EF90089583E0F5CF82E0F3CF0895109287
:1023B000430110924201811104C0809149018111B1
:1023C00011C0EEE3F1E084E0DF011D928A95E9F7A8
:1023D00086ED91E190933D0180933C011092440180
:1023E0001092490181E080934701109248011092B8
:1023F0004501109246010895FC01892B69F087E29E
:102400008083118282E0828388E0838314828581C5
:102410008F60858380E0089581E0089580913C027B
:102420000895CF93DF93FC0110924A01892B41F468
:1024300081E080934A01C1E08C2FDF91CF91089514
:10244000C0913C02CC2329F088E080934A01C8E087
:10245000F3CF808180933202858181FB992790F9A7
:102460009093350282FB882780F98093370285811B
:1024700083FB882780F9809338028581817080935F
:10248000360281E09381983009F080E08093390230
:1024900081E09481911180E080933A02828180935F
:1024A0003B02818182958F708093340281818F708D
:1024B00080933302D1E0D0933C0281E078DF8CE15D
:1024C00095E190933D0180933C01D0934901D093D5
:1024D0004601B2CF80914A018823A1F08B3091F060
:1024E000863081F0909131029F5F909331029A3053
:1024F00058F081E05CDF83E080933C028DE08093C4
:102500004A0108951092310290913C02992369F09A
:102510008950833010F010924A01E0913C01F09113
:102520003D01099580914A01089588E008958091C0
:102530003C029DEF980F923020F4843021F486E025
:10254000089587E0089580E00895CF93DF93D82F12
:10255000EEDFC82F81110DC0D093360284E0809346
:102560003C0280E024DF81E195E190933D0180937E
:102570003C01C0934A018C2FDF91CF910895CF93F6
:10258000DF93D82FD4DFC82F81110DC0D09337022D
:1025900084E080933C0281E00ADF81E195E1909341
:1025A0003D0180933C01C0934A018C2FDF91CF9174
:1025B0000895CF93DF93D82FBADFC82F81110DC0B4
:1025C000D093380284E080933C0281E0F0DE81E128
:1025D00095E190933D0180933C01C0934A018C2F7B
:1025E000DF91CF9108951F93CF93DF93182FD62FAC
:1025F0009EDFC82F81111DC080913902882331F0E0
:10260000123010F4D83230F0C3E013C01111FCCFF7
:10261000D035D0F784E080933C0281E0C8DE10938F
:102620003E01D0933F018AE395E190933D01809371
:102630003C01C0934A018C2FDF91CF911F910895E7
:102640000F931F93CF93DF93D82F8B0170DFC82F89
:10265000811113C081E0ABDED0933F0110923E01A7
:10266000109341010093400184E080933C0286E591
:1026700095E190933D0180933C01C0934A018C2FDA
:10268000DF91CF911F910F91089580913E02877F36
:102690002091350298E0299F90011124822B80938C
:1026A0003E020895CF93C82F80913E028F70809391
:1026B0003E02EBDF80913E02C11105C08C7F80930A
:1026C0003E02CF9108958D7F8160F9CFE2E3F2E081
:1026D000808591E08927880F880F9781990F990F3E
:1026E000990F892B806280933D020895E2E3F2E026
:1026F0008581880F9481990F990F892B9681892B59
:10270000886080933D02089580913B0284608093AD
:102710003D020895882379F080914901811105C017
:1027200083E080933C0280E042CE809144018F5F41
:1027300080934401F8CF08958450883030F4E82F16
:10274000F0E0EE58FE4F808108958EE00895FF92EC
:102750000F931F93CF93DF9300D00F92CDB7DEB7C7
:10276000F82E162F82E08B83809147018823A9F0F1
:1027700062E471E080913302B6DD882311F08CE0D1
:1027800015C080E08FDF80E380933D0280913E02A0
:10279000806380933E0210924701BE016D5F7F4FC0
:1027A0008091340211DB882361F084E080934A0138
:1027B0000F900F900F90DF91CF911F910F91FF908D
:1027C000089500914601002309F43BC01A82198242
:1027D0008B81823069F7AE014F5F5F4F62E471E039
:1027E00080913302B7DD8111CACF89819A8120910E
:1027F00045012223E9F00297D8F280913E028B7FB7
:1028000000E080933E02109246010093450103E0F0
:1028100021E04EE352E06091320280913402ECDA22
:10282000882331F289DF80934A0180E0C0DDC0CF88
:10283000F816190611F008F0BBCF80913E028460B3
:10284000E0CF80914501882321F081E0809346010B
:10285000AFCF80E0ACDD809144018F5F8093440175
:1028600010934601A5CF0F931F93CF93DF9300D012
:102870000F92CDB7DEB71A82198201E00B83BE0139
:102880006D5F7F4F809134029FDA882329F084E0C6
:1028900080934A0110E028C010914601112369F18C
:1028A000AE014F5F5F4F62E471E08091330252DD11
:1028B000882311F08CE0ECCF89819A81029750F344
:1028C00080913E028B7F80933E0203E021E04EE345
:1028D00052E060913202809134028EDA882311F046
:1028E0002BDFD6CF10924A01812F0F900F900F90BF
:1028F000DF91CF911F910F9108958B81823051F616
:1029000080914501882351F062E471E080913302A7
:10291000EADC8111CFCF00934601E6CF80913E02E1
:10292000846080933E0203E021E04EE352E0609138
:1029300032028091340260DA882319F0FDDE809340
:102940004A0181E08093450110924601A3CF809116
:102950004701882389F080913E028F7080933E0268
:1029600080E0A0DE1092470180E280933D028091DA
:102970003E02806280933E0276DF882339F080E059
:1029800016DD809144018F5F80934401089580910A
:102990003E028F7020913D02909148019923C1F031
:1029A00090E1299F90011124822B80933E025BDFEE
:1029B000882369F080914801882361F010924801D2
:1029C00091E09093470110924501109246010895BD
:1029D000207FEACF91E090934801F5CF80914701A5
:1029E000882329F073DE80E05DDE10924701CFDF9F
:1029F00091CE80914701882339F081E080933D0298
:102A000080E050DE10924701C2DF84CE8091470102
:102A1000882329F079DE80E045DE10924701B7DF98
:102A200079CE80914701882329F060DE80E03ADE8C
:102A300010924701ACDF6ECEE0914401E830A0F483
:102A4000F0E0E450F94E7BC161E088E280CE61E0C5
:102A500085E0FCCF60E081E0F9CF79CFBFCF109265
:102A60003602DFCFC6CFD2CF81E0A1DC83E08093F6
:102A70003C020895809147018823A1F0809139029A
:102A8000882391F080913E018295880F880F807C89
:102A900090913F01890F806880933D0280E002DEC3
:102AA0001092470174DF36CE80E0F2CF809147016B
:102AB000882379F080913E01E0914001F09141013D
:102AC000E80FF11D808180933D0281E0EBDD1092E3
:102AD00047015DDF882389F080913E018F5F8093FD
:102AE0003E0191E09093470190913F01891728F0B2
:102AF00083E080933C0280E05ACC08956F927F92ED
:102B00008F929F92AF92BF92CF92DF92EF92FF92FD
:102B10000F931F93CF93DF93CDB7DEB72A970FB6EE
:102B2000F894DEBF0FBECDBF3C01DC018D919D91BD
:102B30000D90BC91A02D89839A83AB83BC83F30154
:102B40002481358146815781BC01CD01D6D02D83AA
:102B50003E834F835887D30118968C91882309F4BC
:102B60009FC08FEF9FEF6C01F12CE12C6D817E8176
:102B70008F819885A7019601C0D081E090E0F30194
:102B800095878487738590E080E001E010E08717E7
:102B9000D8F4DC01AA0FBB1FF30101851285F801EF
:102BA000EA0FFB1F00816181162F1770D3011D965C
:102BB0001C930E931C9701964801B12CA12C8216F0
:102BC0009306A406B50618F3F301108A118A128A37
:102BD000138A0115110509F449C04801B12CA12C33
:102BE0006D817E818F819885A501980186D029838A
:102BF0003A834B835C832C153D054E055F0508F435
:102C000060C0D3011D961C930E931C9769817A8135
:102C10008B819C81A701960170D06D837E838F8309
:102C20009887ED81FE81EF2BF1F5DA01C90101975B
:102C3000A109B109F301808B918BA28BB38B892BF6
:102C40008A2B8B2B81F481E0C81AD108E108F108A6
:102C5000D3015096CD92DD92ED92FC925397C12C08
:102C6000D12C7601C394860101501109D3011F961E
:102C70001C930E931E972A960FB6F894DEBF0FBED4
:102C8000CDBFDF91CF911F910F91FF90EF90DF901B
:102C9000CF90BF90AF909F908F907F906F9008954E
:102CA0008FEF90E060CFF1E0CF1AD108E108F10892
:102CB000C114D10409F0AACFC980DA80EB80FC806E
:102CC000C2CF8D819E81AF81B88510E000E088156C
:102CD0009905AA05BB0550F2C980DA80EB80FC801B
:102CE000C2CF991B79E004C0991F961708F0961B74
:102CF000881F7A95C9F780950895A1E21A2EAA1B1C
:102D0000BB1BFD010DC0AA1FBB1FEE1FFF1FA2179B
:102D1000B307E407F50720F0A21BB30BE40BF50B98
:102D2000661F771F881F991F1A9469F76095709521
:102D3000809590959B01AC01BD01CF010895EE0FE8
:102D4000FF1F0590F491E02D0994DC0101C06D9303
:102D500041505040E0F70895FC01615070400190EF
:102D60000110D8F7809590958E0F9F1F0895BB276F
:102D70004A3031F4992322F4BDE2909581959F4F1A
:102D800001C0BB27FB015527AA27880F991FAA1F3F
:102D9000A41710F0A41B83955051B9F7A05DAA3376
:102DA00008F0A95DA193009779F7B111B193119241
:102DB000CB0100C0DC01FC01672F71917723E1F7A3
:102DC000329704C07C916D9370836291AE17BF07F8
:102DD000C8F30895F894FFCFE2001401190124010B
:102DE00027013001340138017B0D800E870D780EEC
:102DF000700EA30D910D9B0D241527152A152D1569
:082E00002E152F1532153315B4
:102E080069203D20000000000000000000000000D4
:102E180000000000000000000000000000004865FD
:102E28006C6C6F20576F726C64210000000000000A
:102E3800000000000000000000000000D6110000A3
:102E4800000000000000000100000E000102030461
:102E58000108081040180021002C0108081020184B
:102E6800402080280031003C01080810401800214B
:0A2E7800002C09040E090E0A0E0BCF
:00000001FF
